{
  "contractName": "AnimalVote",
  "abi": [
    {
      "constant": true,
      "inputs": [],
      "name": "name",
      "outputs": [
        {
          "name": "",
          "type": "string"
        }
      ],
      "payable": false,
      "stateMutability": "view",
      "type": "function"
    },
    {
      "constant": true,
      "inputs": [
        {
          "name": "",
          "type": "uint256"
        }
      ],
      "name": "votes",
      "outputs": [
        {
          "name": "id",
          "type": "uint256"
        },
        {
          "name": "winningAnimal",
          "type": "string"
        },
        {
          "name": "animalCount",
          "type": "uint256"
        },
        {
          "name": "voter",
          "type": "address"
        }
      ],
      "payable": false,
      "stateMutability": "view",
      "type": "function"
    },
    {
      "constant": true,
      "inputs": [],
      "name": "voteCount",
      "outputs": [
        {
          "name": "",
          "type": "uint256"
        }
      ],
      "payable": false,
      "stateMutability": "view",
      "type": "function"
    },
    {
      "inputs": [],
      "payable": false,
      "stateMutability": "nonpayable",
      "type": "constructor"
    },
    {
      "anonymous": false,
      "inputs": [
        {
          "indexed": false,
          "name": "id",
          "type": "uint256"
        },
        {
          "indexed": false,
          "name": "winningAnimal",
          "type": "string"
        },
        {
          "indexed": false,
          "name": "animalCount",
          "type": "uint256"
        }
      ],
      "name": "VotePlaced",
      "type": "event"
    },
    {
      "constant": false,
      "inputs": [
        {
          "name": "_winningAnimal",
          "type": "string"
        },
        {
          "name": "_animalCount",
          "type": "uint256"
        }
      ],
      "name": "placeVote",
      "outputs": [],
      "payable": false,
      "stateMutability": "nonpayable",
      "type": "function"
    }
  ],
  "bytecode": "0x6080604052600060015534801561001557600080fd5b506040805190810160405280601681526020017f5468652046696768742054686174204d6174746572730000000000000000000081525060009080519060200190610061929190610067565b5061010c565b828054600181600116156101000203166002900490600052602060002090601f016020900481019282601f106100a857805160ff19168380011785556100d6565b828001600101855582156100d6579182015b828111156100d55782518255916020019190600101906100ba565b5b5090506100e391906100e7565b5090565b61010991905b808211156101055760008160009055506001016100ed565b5090565b90565b6106e48061011b6000396000f3fe608060405260043610610062576000357c0100000000000000000000000000000000000000000000000000000000900463ffffffff16806306fdde03146100675780635df81330146100f757806383a2fad2146101ec578063c6384071146102be575b600080fd5b34801561007357600080fd5b5061007c6102e9565b6040518080602001828103825283818151815260200191508051906020019080838360005b838110156100bc5780820151818401526020810190506100a1565b50505050905090810190601f1680156100e95780820380516001836020036101000a031916815260200191505b509250505060405180910390f35b34801561010357600080fd5b506101306004803603602081101561011a57600080fd5b8101908080359060200190929190505050610387565b60405180858152602001806020018481526020018373ffffffffffffffffffffffffffffffffffffffff1673ffffffffffffffffffffffffffffffffffffffff168152602001828103825285818151815260200191508051906020019080838360005b838110156101ae578082015181840152602081019050610193565b50505050905090810190601f1680156101db5780820380516001836020036101000a031916815260200191505b509550505050505060405180910390f35b3480156101f857600080fd5b506102bc6004803603604081101561020f57600080fd5b810190808035906020019064010000000081111561022c57600080fd5b82018360208201111561023e57600080fd5b8035906020019184600183028401116401000000008311171561026057600080fd5b91908080601f016020809104026020016040519081016040528093929190818152602001838380828437600081840152601f19601f8201169050808301925050505050505091929192908035906020019092919050505061046f565b005b3480156102ca57600080fd5b506102d361060d565b6040518082815260200191505060405180910390f35b60008054600181600116156101000203166002900480601f01602080910402602001604051908101604052809291908181526020018280546001816001161561010002031660029004801561037f5780601f106103545761010080835404028352916020019161037f565b820191906000526020600020905b81548152906001019060200180831161036257829003601f168201915b505050505081565b6002602052806000526040600020600091509050806000015490806001018054600181600116156101000203166002900480601f0160208091040260200160405190810160405280929190818152602001828054600181600116156101000203166002900480156104395780601f1061040e57610100808354040283529160200191610439565b820191906000526020600020905b81548152906001019060200180831161041c57829003601f168201915b5050505050908060020154908060030160009054906101000a900473ffffffffffffffffffffffffffffffffffffffff16905084565b6000825111151561047f57600080fd5b60806040519081016040528060015481526020018381526020018281526020013373ffffffffffffffffffffffffffffffffffffffff168152506002600060015481526020019081526020016000206000820151816000015560208201518160010190805190602001906104f4929190610613565b506040820151816002015560608201518160030160006101000a81548173ffffffffffffffffffffffffffffffffffffffff021916908373ffffffffffffffffffffffffffffffffffffffff1602179055509050506001600081548092919060010191905055507fda07a236acd8370c12c9d59f135947e67fd8c4dece36b4244bbe285bb4e78a1260015483836040518084815260200180602001838152602001828103825284818151815260200191508051906020019080838360005b838110156105cd5780820151818401526020810190506105b2565b50505050905090810190601f1680156105fa5780820380516001836020036101000a031916815260200191505b5094505050505060405180910390a15050565b60015481565b828054600181600116156101000203166002900490600052602060002090601f016020900481019282601f1061065457805160ff1916838001178555610682565b82800160010185558215610682579182015b82811115610681578251825591602001919060010190610666565b5b50905061068f9190610693565b5090565b6106b591905b808211156106b1576000816000905550600101610699565b5090565b9056fea165627a7a72305820b9115cc0f184ce589c23a307a379e80b7c2f51d34e66c6d937385e3e4d8dd7de0029",
  "source": "// SPDX-License-Identifier: MIT\n\npragma solidity >= 0.5.0;\n\n\ncontract AnimalVote {\n    string public name;\n    uint public voteCount = 0;\n    \n\n    event VotePlaced(\n        uint id,\n        string winningAnimal,\n        uint256 animalCount\n    );\n\n    struct Vote {\n        uint id;                \n        string winningAnimal;           // name of species\n        uint256 animalCount;            // # of winning animals in fight\n        address voter;                  // address of voter\n    }\n\n    mapping(uint => Vote) public votes;\n\n    // Constructor function\n    constructor () public {\n        name = \"The Fight That Matters\";\n    }\n\n    function placeVote(string memory _winningAnimal, uint256 _animalCount) public {\n        require(bytes(_winningAnimal).length > 0);\n        // place the vote\n        votes[voteCount] = Vote(voteCount, _winningAnimal, _animalCount, msg.sender);\n        voteCount++;\n        emit VotePlaced(voteCount, _winningAnimal, _animalCount);\n    }\n\n}",
  "sourcePath": "/home/kyle/Desktop/combat-simulator/src/contracts/AnimalVote.sol",
  "compiler": {
    "name": "solc",
    "version": "0.5.0+commit.1d4f565a.Emscripten.clang"
  },
  "schemaVersion": "3.0.1",
  "updatedAt": "2021-08-16T00:51:08.309Z",
  "devdoc": {
    "methods": {}
  },
  "userdoc": {
    "methods": {}
  }
}