{
    "contractName": "AnimalVote",
    "abi": [
        {
            "inputs": [],
            "stateMutability": "nonpayable",
            "type": "constructor"
        },
        {
            "anonymous": false,
            "inputs": [
                {
                    "indexed": false,
                    "internalType": "uint256",
                    "name": "id",
                    "type": "uint256"
                },
                {
                    "indexed": false,
                    "internalType": "string",
                    "name": "winningAnimal",
                    "type": "string"
                },
                {
                    "indexed": false,
                    "internalType": "uint256",
                    "name": "animalCount",
                    "type": "uint256"
                }
            ],
            "name": "VotePlaced",
            "type": "event"
        },
        {
            "inputs": [],
            "name": "name",
            "outputs": [
                {
                    "internalType": "string",
                    "name": "",
                    "type": "string"
                }
            ],
            "stateMutability": "view",
            "type": "function"
        },
        {
            "inputs": [
                {
                    "internalType": "string",
                    "name": "_winningAnimal",
                    "type": "string"
                },
                {
                    "internalType": "uint256",
                    "name": "_animalCount",
                    "type": "uint256"
                }
            ],
            "name": "placeVote",
            "outputs": [],
            "stateMutability": "nonpayable",
            "type": "function"
        },
        {
            "inputs": [],
            "name": "voteCount",
            "outputs": [
                {
                    "internalType": "uint256",
                    "name": "",
                    "type": "uint256"
                }
            ],
            "stateMutability": "view",
            "type": "function"
        },
        {
            "inputs": [
                {
                    "internalType": "uint256",
                    "name": "",
                    "type": "uint256"
                }
            ],
            "name": "votes",
            "outputs": [
                {
                    "internalType": "uint256",
                    "name": "id",
                    "type": "uint256"
                },
                {
                    "internalType": "string",
                    "name": "winningAnimal",
                    "type": "string"
                },
                {
                    "internalType": "uint256",
                    "name": "animalCount",
                    "type": "uint256"
                },
                {
                    "internalType": "address",
                    "name": "voter",
                    "type": "address"
                }
            ],
            "stateMutability": "view",
            "type": "function"
        }
    ],
    "bytecode": "6080604052600060015534801561001557600080fd5b506040805180820190915260168082527f5468652046696768742054686174204d61747465727300000000000000000000602090920191825261005a91600091610060565b50610134565b82805461006c906100f9565b90600052602060002090601f01602090048101928261008e57600085556100d4565b82601f106100a757805160ff19168380011785556100d4565b828001600101855582156100d4579182015b828111156100d45782518255916020019190600101906100b9565b506100e09291506100e4565b5090565b5b808211156100e057600081556001016100e5565b600181811c9082168061010d57607f821691505b6020821081141561012e57634e487b7160e01b600052602260045260246000fd5b50919050565b6105cd806101436000396000f3fe608060405234801561001057600080fd5b506004361061004c5760003560e01c806306fdde03146100515780635df813301461006f57806383a2fad214610092578063c6384071146100a7575b600080fd5b6100596100be565b60405161006691906104a0565b60405180910390f35b61008261007d36600461043a565b61014c565b60405161006694939291906104e3565b6100a56100a0366004610385565b610207565b005b6100b060015481565b604051908152602001610066565b600080546100cb9061051d565b80601f01602080910402602001604051908101604052809291908181526020018280546100f79061051d565b80156101445780601f1061011957610100808354040283529160200191610144565b820191906000526020600020905b81548152906001019060200180831161012757829003601f168201915b505050505081565b6002602052600090815260409020805460018201805491929161016e9061051d565b80601f016020809104026020016040519081016040528092919081815260200182805461019a9061051d565b80156101e75780601f106101bc576101008083540402835291602001916101e7565b820191906000526020600020905b8154815290600101906020018083116101ca57829003601f168201915b5050505060028301546003909301549192916001600160a01b0316905084565b600082511161021557600080fd5b604080516080810182526001805480835260208084018781528486018790523360608601526000928352600282529490912083518155935180519394936102639385019291909101906102ec565b5060408201516002820155606090910151600390910180546001600160a01b0319166001600160a01b03909216919091179055600180549060006102a683610558565b91905055507fda07a236acd8370c12c9d59f135947e67fd8c4dece36b4244bbe285bb4e78a1260015483836040516102e0939291906104ba565b60405180910390a15050565b8280546102f89061051d565b90600052602060002090601f01602090048101928261031a5760008555610360565b82601f1061033357805160ff1916838001178555610360565b82800160010185558215610360579182015b82811115610360578251825591602001919060010190610345565b5061036c929150610370565b5090565b5b8082111561036c5760008155600101610371565b6000806040838503121561039857600080fd5b823567ffffffffffffffff808211156103b057600080fd5b818501915085601f8301126103c457600080fd5b8135818111156103d6576103d6610581565b604051601f8201601f19908116603f011681019083821181831017156103fe576103fe610581565b8160405282815288602084870101111561041757600080fd5b826020860160208301376000602093820184015298969091013596505050505050565b60006020828403121561044c57600080fd5b5035919050565b6000815180845260005b818110156104795760208185018101518683018201520161045d565b8181111561048b576000602083870101525b50601f01601f19169290920160200192915050565b6020815260006104b36020830184610453565b9392505050565b8381526060602082015260006104d36060830185610453565b9050826040830152949350505050565b8481526080602082015260006104fc6080830186610453565b6040830194909452506001600160a01b039190911660609091015292915050565b600181811c9082168061053157607f821691505b6020821081141561055257634e487b7160e01b600052602260045260246000fd5b50919050565b600060001982141561057a57634e487b7160e01b600052601160045260246000fd5b5060010190565b634e487b7160e01b600052604160045260246000fdfea2646970667358221220f3b5b6556d34c06a45b3083769b19884f137b5b7f4684f244a6b588a1eb68c0b64736f6c63430008070033",
    "sourcePath": "/home/kyle/Desktop/combat-simulator/src/contracts/AnimalVote.sol",
    "compiler": {
        "name": "solc",
        "version": "0.8.7+commit.e28d00a7"
    },
    "functionHashes": {
        "name()": "06fdde03",
        "placeVote(string,uint256)": "83a2fad2",
        "voteCount()": "c6384071",
        "votes(uint256)": "5df81330"
    },
    "gasEstimates": {
        "creation": {
            "codeDepositCost": "297000",
            "executionCost": "infinite",
            "totalCost": "infinite"
        },
        "external": {
            "name()": "infinite",
            "placeVote(string,uint256)": "infinite",
            "voteCount()": "2339",
            "votes(uint256)": "infinite"
        }
    }
}